{
  "_format": "hh-sol-artifact-1",
  "contractName": "Lbweth",
  "sourceName": "contracts/LBWETH.sol",
  "abi": [
    {
      "inputs": [],
      "stateMutability": "nonpayable",
      "type": "constructor"
    },
    {
      "inputs": [],
      "name": "ECDSAInvalidSignature",
      "type": "error"
    },
    {
      "inputs": [
        {
          "internalType": "uint256",
          "name": "length",
          "type": "uint256"
        }
      ],
      "name": "ECDSAInvalidSignatureLength",
      "type": "error"
    },
    {
      "inputs": [
        {
          "internalType": "bytes32",
          "name": "s",
          "type": "bytes32"
        }
      ],
      "name": "ECDSAInvalidSignatureS",
      "type": "error"
    },
    {
      "inputs": [
        {
          "internalType": "address",
          "name": "spender",
          "type": "address"
        },
        {
          "internalType": "uint256",
          "name": "allowance",
          "type": "uint256"
        },
        {
          "internalType": "uint256",
          "name": "needed",
          "type": "uint256"
        }
      ],
      "name": "ERC20InsufficientAllowance",
      "type": "error"
    },
    {
      "inputs": [
        {
          "internalType": "address",
          "name": "sender",
          "type": "address"
        },
        {
          "internalType": "uint256",
          "name": "balance",
          "type": "uint256"
        },
        {
          "internalType": "uint256",
          "name": "needed",
          "type": "uint256"
        }
      ],
      "name": "ERC20InsufficientBalance",
      "type": "error"
    },
    {
      "inputs": [
        {
          "internalType": "address",
          "name": "approver",
          "type": "address"
        }
      ],
      "name": "ERC20InvalidApprover",
      "type": "error"
    },
    {
      "inputs": [
        {
          "internalType": "address",
          "name": "receiver",
          "type": "address"
        }
      ],
      "name": "ERC20InvalidReceiver",
      "type": "error"
    },
    {
      "inputs": [
        {
          "internalType": "address",
          "name": "sender",
          "type": "address"
        }
      ],
      "name": "ERC20InvalidSender",
      "type": "error"
    },
    {
      "inputs": [
        {
          "internalType": "address",
          "name": "spender",
          "type": "address"
        }
      ],
      "name": "ERC20InvalidSpender",
      "type": "error"
    },
    {
      "inputs": [
        {
          "internalType": "uint256",
          "name": "deadline",
          "type": "uint256"
        }
      ],
      "name": "ERC2612ExpiredSignature",
      "type": "error"
    },
    {
      "inputs": [
        {
          "internalType": "address",
          "name": "signer",
          "type": "address"
        },
        {
          "internalType": "address",
          "name": "owner",
          "type": "address"
        }
      ],
      "name": "ERC2612InvalidSigner",
      "type": "error"
    },
    {
      "inputs": [
        {
          "internalType": "address",
          "name": "account",
          "type": "address"
        },
        {
          "internalType": "uint256",
          "name": "currentNonce",
          "type": "uint256"
        }
      ],
      "name": "InvalidAccountNonce",
      "type": "error"
    },
    {
      "inputs": [],
      "name": "InvalidShortString",
      "type": "error"
    },
    {
      "inputs": [
        {
          "internalType": "string",
          "name": "str",
          "type": "string"
        }
      ],
      "name": "StringTooLong",
      "type": "error"
    },
    {
      "anonymous": false,
      "inputs": [
        {
          "indexed": true,
          "internalType": "address",
          "name": "owner",
          "type": "address"
        },
        {
          "indexed": true,
          "internalType": "address",
          "name": "spender",
          "type": "address"
        },
        {
          "indexed": false,
          "internalType": "uint256",
          "name": "value",
          "type": "uint256"
        }
      ],
      "name": "Approval",
      "type": "event"
    },
    {
      "anonymous": false,
      "inputs": [],
      "name": "EIP712DomainChanged",
      "type": "event"
    },
    {
      "anonymous": false,
      "inputs": [
        {
          "indexed": true,
          "internalType": "address",
          "name": "from",
          "type": "address"
        },
        {
          "indexed": true,
          "internalType": "address",
          "name": "to",
          "type": "address"
        },
        {
          "indexed": false,
          "internalType": "uint256",
          "name": "value",
          "type": "uint256"
        }
      ],
      "name": "Transfer",
      "type": "event"
    },
    {
      "inputs": [],
      "name": "DOMAIN_SEPARATOR",
      "outputs": [
        {
          "internalType": "bytes32",
          "name": "",
          "type": "bytes32"
        }
      ],
      "stateMutability": "view",
      "type": "function"
    },
    {
      "inputs": [],
      "name": "INITIAL_SUPPLY",
      "outputs": [
        {
          "internalType": "uint256",
          "name": "",
          "type": "uint256"
        }
      ],
      "stateMutability": "view",
      "type": "function"
    },
    {
      "inputs": [
        {
          "internalType": "address",
          "name": "owner",
          "type": "address"
        },
        {
          "internalType": "address",
          "name": "spender",
          "type": "address"
        }
      ],
      "name": "allowance",
      "outputs": [
        {
          "internalType": "uint256",
          "name": "",
          "type": "uint256"
        }
      ],
      "stateMutability": "view",
      "type": "function"
    },
    {
      "inputs": [
        {
          "internalType": "address",
          "name": "spender",
          "type": "address"
        },
        {
          "internalType": "uint256",
          "name": "value",
          "type": "uint256"
        }
      ],
      "name": "approve",
      "outputs": [
        {
          "internalType": "bool",
          "name": "",
          "type": "bool"
        }
      ],
      "stateMutability": "nonpayable",
      "type": "function"
    },
    {
      "inputs": [
        {
          "internalType": "address",
          "name": "account",
          "type": "address"
        }
      ],
      "name": "balanceOf",
      "outputs": [
        {
          "internalType": "uint256",
          "name": "",
          "type": "uint256"
        }
      ],
      "stateMutability": "view",
      "type": "function"
    },
    {
      "inputs": [],
      "name": "decimals",
      "outputs": [
        {
          "internalType": "uint8",
          "name": "",
          "type": "uint8"
        }
      ],
      "stateMutability": "view",
      "type": "function"
    },
    {
      "inputs": [],
      "name": "eip712Domain",
      "outputs": [
        {
          "internalType": "bytes1",
          "name": "fields",
          "type": "bytes1"
        },
        {
          "internalType": "string",
          "name": "name",
          "type": "string"
        },
        {
          "internalType": "string",
          "name": "version",
          "type": "string"
        },
        {
          "internalType": "uint256",
          "name": "chainId",
          "type": "uint256"
        },
        {
          "internalType": "address",
          "name": "verifyingContract",
          "type": "address"
        },
        {
          "internalType": "bytes32",
          "name": "salt",
          "type": "bytes32"
        },
        {
          "internalType": "uint256[]",
          "name": "extensions",
          "type": "uint256[]"
        }
      ],
      "stateMutability": "view",
      "type": "function"
    },
    {
      "inputs": [
        {
          "internalType": "address",
          "name": "to",
          "type": "address"
        },
        {
          "internalType": "uint256",
          "name": "amount",
          "type": "uint256"
        }
      ],
      "name": "mint",
      "outputs": [],
      "stateMutability": "nonpayable",
      "type": "function"
    },
    {
      "inputs": [],
      "name": "name",
      "outputs": [
        {
          "internalType": "string",
          "name": "",
          "type": "string"
        }
      ],
      "stateMutability": "view",
      "type": "function"
    },
    {
      "inputs": [
        {
          "internalType": "address",
          "name": "owner",
          "type": "address"
        }
      ],
      "name": "nonces",
      "outputs": [
        {
          "internalType": "uint256",
          "name": "",
          "type": "uint256"
        }
      ],
      "stateMutability": "view",
      "type": "function"
    },
    {
      "inputs": [
        {
          "internalType": "address",
          "name": "owner",
          "type": "address"
        },
        {
          "internalType": "address",
          "name": "spender",
          "type": "address"
        },
        {
          "internalType": "uint256",
          "name": "value",
          "type": "uint256"
        },
        {
          "internalType": "uint256",
          "name": "deadline",
          "type": "uint256"
        },
        {
          "internalType": "uint8",
          "name": "v",
          "type": "uint8"
        },
        {
          "internalType": "bytes32",
          "name": "r",
          "type": "bytes32"
        },
        {
          "internalType": "bytes32",
          "name": "s",
          "type": "bytes32"
        }
      ],
      "name": "permit",
      "outputs": [],
      "stateMutability": "nonpayable",
      "type": "function"
    },
    {
      "inputs": [],
      "name": "symbol",
      "outputs": [
        {
          "internalType": "string",
          "name": "",
          "type": "string"
        }
      ],
      "stateMutability": "view",
      "type": "function"
    },
    {
      "inputs": [],
      "name": "totalSupply",
      "outputs": [
        {
          "internalType": "uint256",
          "name": "",
          "type": "uint256"
        }
      ],
      "stateMutability": "view",
      "type": "function"
    },
    {
      "inputs": [
        {
          "internalType": "address",
          "name": "to",
          "type": "address"
        },
        {
          "internalType": "uint256",
          "name": "value",
          "type": "uint256"
        }
      ],
      "name": "transfer",
      "outputs": [
        {
          "internalType": "bool",
          "name": "",
          "type": "bool"
        }
      ],
      "stateMutability": "nonpayable",
      "type": "function"
    },
    {
      "inputs": [
        {
          "internalType": "address",
          "name": "from",
          "type": "address"
        },
        {
          "internalType": "address",
          "name": "to",
          "type": "address"
        },
        {
          "internalType": "uint256",
          "name": "value",
          "type": "uint256"
        }
      ],
      "name": "transferFrom",
      "outputs": [
        {
          "internalType": "bool",
          "name": "",
          "type": "bool"
        }
      ],
      "stateMutability": "nonpayable",
      "type": "function"
    }
  ],
  "bytecode": "0x6101606040523480156200001257600080fd5b50604051806040016040528060068152602001650d8c4ae8aa8960d31b81525080604051806040016040528060018152602001603160f81b815250604051806040016040528060068152602001650d8c4ae8aa8960d31b815250604051806040016040528060068152602001650d8c4ae8aa8960d31b81525081600390816200009c91906200042a565b506004620000ab82826200042a565b50620000bd9150839050600562000192565b61012052620000ce81600662000192565b61014052815160208084019190912060e052815190820120610100524660a0526200015c60e05161010051604080517f8b73c3c69bb8fe3d512ecc4cf759cc79239f7b179b0ffacaa9a75d522b39400f60208201529081019290925260608201524660808201523060a082015260009060c00160405160208183030381529060405280519060200120905090565b60805250503060c052506200018c3362000186670de0b6b3a764000066038d7ea4c680006200050c565b620001cb565b620005b2565b6000602083511015620001b257620001aa836200020d565b9050620001c5565b81620001bf84826200042a565b5060ff90505b92915050565b6001600160a01b038216620001fb5760405163ec442f0560e01b8152600060048201526024015b60405180910390fd5b620002096000838362000250565b5050565b600080829050601f815111156200023b578260405163305a27a960e01b8152600401620001f2919062000526565b8051620002488262000577565b179392505050565b6001600160a01b0383166200027f5780600260008282546200027391906200059c565b90915550620002f39050565b6001600160a01b03831660009081526020819052604090205481811015620002d45760405163391434e360e21b81526001600160a01b03851660048201526024810182905260448101839052606401620001f2565b6001600160a01b03841660009081526020819052604090209082900390555b6001600160a01b038216620003115760028054829003905562000330565b6001600160a01b03821660009081526020819052604090208054820190555b816001600160a01b0316836001600160a01b03167fddf252ad1be2c89b69c2b068fc378daa952ba7f163c4a11628f55a4df523b3ef836040516200037691815260200190565b60405180910390a3505050565b634e487b7160e01b600052604160045260246000fd5b600181811c90821680620003ae57607f821691505b602082108103620003cf57634e487b7160e01b600052602260045260246000fd5b50919050565b601f82111562000425576000816000526020600020601f850160051c81016020861015620004005750805b601f850160051c820191505b8181101562000421578281556001016200040c565b5050505b505050565b81516001600160401b0381111562000446576200044662000383565b6200045e8162000457845462000399565b84620003d5565b602080601f8311600181146200049657600084156200047d5750858301515b600019600386901b1c1916600185901b17855562000421565b600085815260208120601f198616915b82811015620004c757888601518255948401946001909101908401620004a6565b5085821015620004e65787850151600019600388901b60f8161c191681555b5050505050600190811b01905550565b634e487b7160e01b600052601160045260246000fd5b8082028115828204841417620001c557620001c5620004f6565b60006020808352835180602085015260005b81811015620005565785810183015185820160400152820162000538565b506000604082860101526040601f19601f8301168501019250505092915050565b80516020808301519190811015620003cf5760001960209190910360031b1b16919050565b80820180821115620001c557620001c5620004f6565b60805160a05160c05160e0516101005161012051610140516111216200060d600039600061081f015260006107f2015260006107640152600061073c01526000610697015260006106c1015260006106eb01526111216000f3fe608060405234801561001057600080fd5b50600436106100f55760003560e01c806340c10f191161009757806395d89b411161006657806395d89b41146101eb578063a9059cbb146101f3578063d505accf14610206578063dd62ed3e1461021957600080fd5b806340c10f191461017f57806370a08231146101945780637ecebe00146101bd57806384b0196e146101d057600080fd5b806323b872dd116100d357806323b872dd1461014d5780632ff2e9dc14610160578063313ce567146101685780633644e5151461017757600080fd5b806306fdde03146100fa578063095ea7b31461011857806318160ddd1461013b575b600080fd5b610102610252565b60405161010f9190610e49565b60405180910390f35b61012b610126366004610e7f565b6102e4565b604051901515815260200161010f565b6002545b60405190815260200161010f565b61012b61015b366004610ea9565b6102fe565b61013f610322565b6040516012815260200161010f565b61013f61033e565b61019261018d366004610e7f565b61034d565b005b61013f6101a2366004610ee5565b6001600160a01b031660009081526020819052604090205490565b61013f6101cb366004610ee5565b61035b565b6101d8610379565b60405161010f9796959493929190610f00565b6101026103db565b61012b610201366004610e7f565b6103ea565b610192610214366004610fb5565b6103f8565b61013f610227366004611028565b6001600160a01b03918216600090815260016020908152604080832093909416825291909152205490565b6060600380546102619061105b565b80601f016020809104026020016040519081016040528092919081815260200182805461028d9061105b565b80156102da5780601f106102af576101008083540402835291602001916102da565b820191906000526020600020905b8154815290600101906020018083116102bd57829003601f168201915b5050505050905090565b6000336102f2818585610569565b60019150505b92915050565b60003361030c85828561057b565b610317858585610612565b506001949350505050565b61033b670de0b6b3a764000066038d7ea4c680006110ab565b81565b600061034861068a565b905090565b61035782826107b5565b5050565b6001600160a01b0381166000908152600760205260408120546102f8565b60006060806000806000606061038d6107eb565b610395610818565b604080516000808252602082019092527f0f000000000000000000000000000000000000000000000000000000000000009b939a50919850469750309650945092509050565b6060600480546102619061105b565b6000336102f2818585610612565b8342111561043a576040517f62791302000000000000000000000000000000000000000000000000000000008152600481018590526024015b60405180910390fd5b60007f6e71edae12b1b97f4d1f60370fef10105fa2faae0126114a169c64845d6126c98888886104878c6001600160a01b0316600090815260076020526040902080546001810190915590565b6040805160208101969096526001600160a01b0394851690860152929091166060840152608083015260a082015260c0810186905260e00160405160208183030381529060405280519060200120905060006104e282610845565b905060006104f28287878761088d565b9050896001600160a01b0316816001600160a01b031614610552576040517f4b800e460000000000000000000000000000000000000000000000000000000081526001600160a01b0380831660048301528b166024820152604401610431565b61055d8a8a8a610569565b50505050505050505050565b61057683838360016108bb565b505050565b6001600160a01b03838116600090815260016020908152604080832093861683529290522054600019811461060c57818110156105fd576040517ffb8f41b20000000000000000000000000000000000000000000000000000000081526001600160a01b03841660048201526024810182905260448101839052606401610431565b61060c848484840360006108bb565b50505050565b6001600160a01b038316610655576040517f96c6fd1e00000000000000000000000000000000000000000000000000000000815260006004820152602401610431565b6001600160a01b03821661067f5760405163ec442f0560e01b815260006004820152602401610431565b6105768383836109c2565b6000306001600160a01b037f0000000000000000000000000000000000000000000000000000000000000000161480156106e357507f000000000000000000000000000000000000000000000000000000000000000046145b1561070d57507f000000000000000000000000000000000000000000000000000000000000000090565b610348604080517f8b73c3c69bb8fe3d512ecc4cf759cc79239f7b179b0ffacaa9a75d522b39400f60208201527f0000000000000000000000000000000000000000000000000000000000000000918101919091527f000000000000000000000000000000000000000000000000000000000000000060608201524660808201523060a082015260009060c00160405160208183030381529060405280519060200120905090565b6001600160a01b0382166107df5760405163ec442f0560e01b815260006004820152602401610431565b610357600083836109c2565b60606103487f00000000000000000000000000000000000000000000000000000000000000006005610b05565b60606103487f00000000000000000000000000000000000000000000000000000000000000006006610b05565b60006102f861085261068a565b836040517f19010000000000000000000000000000000000000000000000000000000000008152600281019290925260228201526042902090565b60008060008061089f88888888610bb0565b9250925092506108af8282610c7f565b50909695505050505050565b6001600160a01b0384166108fe576040517fe602df0500000000000000000000000000000000000000000000000000000000815260006004820152602401610431565b6001600160a01b038316610941576040517f94280d6200000000000000000000000000000000000000000000000000000000815260006004820152602401610431565b6001600160a01b038085166000908152600160209081526040808320938716835292905220829055801561060c57826001600160a01b0316846001600160a01b03167f8c5be1e5ebec7d5bd14f71427d1e84f3dd0314c0f7b2291e5b200ac8c7c3b925846040516109b491815260200190565b60405180910390a350505050565b6001600160a01b0383166109ed5780600260008282546109e291906110c2565b90915550610a789050565b6001600160a01b03831660009081526020819052604090205481811015610a59576040517fe450d38c0000000000000000000000000000000000000000000000000000000081526001600160a01b03851660048201526024810182905260448101839052606401610431565b6001600160a01b03841660009081526020819052604090209082900390555b6001600160a01b038216610a9457600280548290039055610ab3565b6001600160a01b03821660009081526020819052604090208054820190555b816001600160a01b0316836001600160a01b03167fddf252ad1be2c89b69c2b068fc378daa952ba7f163c4a11628f55a4df523b3ef83604051610af891815260200190565b60405180910390a3505050565b606060ff8314610b1f57610b1883610d83565b90506102f8565b818054610b2b9061105b565b80601f0160208091040260200160405190810160405280929190818152602001828054610b579061105b565b8015610ba45780601f10610b7957610100808354040283529160200191610ba4565b820191906000526020600020905b815481529060010190602001808311610b8757829003601f168201915b505050505090506102f8565b600080807f7fffffffffffffffffffffffffffffff5d576e7357a4501ddfe92f46681b20a0841115610beb5750600091506003905082610c75565b604080516000808252602082018084528a905260ff891692820192909252606081018790526080810186905260019060a0016020604051602081039080840390855afa158015610c3f573d6000803e3d6000fd5b5050604051601f1901519150506001600160a01b038116610c6b57506000925060019150829050610c75565b9250600091508190505b9450945094915050565b6000826003811115610c9357610c936110d5565b03610c9c575050565b6001826003811115610cb057610cb06110d5565b03610ce7576040517ff645eedf00000000000000000000000000000000000000000000000000000000815260040160405180910390fd5b6002826003811115610cfb57610cfb6110d5565b03610d35576040517ffce698f700000000000000000000000000000000000000000000000000000000815260048101829052602401610431565b6003826003811115610d4957610d496110d5565b03610357576040517fd78bce0c00000000000000000000000000000000000000000000000000000000815260048101829052602401610431565b60606000610d9083610dc2565b604080516020808252818301909252919250600091906020820181803683375050509182525060208101929092525090565b600060ff8216601f8111156102f8576040517fb3512b0c00000000000000000000000000000000000000000000000000000000815260040160405180910390fd5b6000815180845260005b81811015610e2957602081850181015186830182015201610e0d565b506000602082860101526020601f19601f83011685010191505092915050565b602081526000610e5c6020830184610e03565b9392505050565b80356001600160a01b0381168114610e7a57600080fd5b919050565b60008060408385031215610e9257600080fd5b610e9b83610e63565b946020939093013593505050565b600080600060608486031215610ebe57600080fd5b610ec784610e63565b9250610ed560208501610e63565b9150604084013590509250925092565b600060208284031215610ef757600080fd5b610e5c82610e63565b7fff00000000000000000000000000000000000000000000000000000000000000881681526000602060e06020840152610f3d60e084018a610e03565b8381036040850152610f4f818a610e03565b606085018990526001600160a01b038816608086015260a0850187905284810360c08601528551808252602080880193509091019060005b81811015610fa357835183529284019291840191600101610f87565b50909c9b505050505050505050505050565b600080600080600080600060e0888a031215610fd057600080fd5b610fd988610e63565b9650610fe760208901610e63565b95506040880135945060608801359350608088013560ff8116811461100b57600080fd5b9699959850939692959460a0840135945060c09093013592915050565b6000806040838503121561103b57600080fd5b61104483610e63565b915061105260208401610e63565b90509250929050565b600181811c9082168061106f57607f821691505b60208210810361108f57634e487b7160e01b600052602260045260246000fd5b50919050565b634e487b7160e01b600052601160045260246000fd5b80820281158282048414176102f8576102f8611095565b808201808211156102f8576102f8611095565b634e487b7160e01b600052602160045260246000fdfea26469706673582212202c09c5416415fa9c7ef6e592d7d3bf12ee5902e0d0f75f335806e3a7ef97740a64736f6c63430008180033",
  "linkReferences": {},
  "deployedLinkReferences": {}
}