{
  "_format": "hh-sol-artifact-1",
  "contractName": "Book",
  "sourceName": "contracts/Book.sol",
  "abi": [
    {
      "inputs": [
        {
          "internalType": "address",
          "name": "_quoteToken",
          "type": "address"
        },
        {
          "internalType": "address",
          "name": "_baseToken",
          "type": "address"
        },
        {
          "internalType": "uint256",
          "name": "_startingLimitPrice",
          "type": "uint256"
        },
        {
          "internalType": "uint256",
          "name": "_priceStep",
          "type": "uint256"
        },
        {
          "internalType": "uint256",
          "name": "_minDepositBase",
          "type": "uint256"
        },
        {
          "internalType": "uint256",
          "name": "_minDepositQuote",
          "type": "uint256"
        },
        {
          "internalType": "uint256",
          "name": "_liquidationLTV",
          "type": "uint256"
        }
      ],
      "stateMutability": "nonpayable",
      "type": "constructor"
    },
    {
      "inputs": [
        {
          "internalType": "address",
          "name": "target",
          "type": "address"
        }
      ],
      "name": "AddressEmptyCode",
      "type": "error"
    },
    {
      "inputs": [
        {
          "internalType": "address",
          "name": "account",
          "type": "address"
        }
      ],
      "name": "AddressInsufficientBalance",
      "type": "error"
    },
    {
      "inputs": [],
      "name": "FailedInnerCall",
      "type": "error"
    },
    {
      "inputs": [
        {
          "internalType": "address",
          "name": "token",
          "type": "address"
        }
      ],
      "name": "SafeERC20FailedOperation",
      "type": "error"
    },
    {
      "anonymous": false,
      "inputs": [
        {
          "indexed": false,
          "internalType": "address",
          "name": "borrower",
          "type": "address"
        },
        {
          "indexed": false,
          "internalType": "uint256",
          "name": "poolId",
          "type": "uint256"
        },
        {
          "indexed": false,
          "internalType": "uint256",
          "name": "positionId",
          "type": "uint256"
        },
        {
          "indexed": false,
          "internalType": "uint256",
          "name": "quantity",
          "type": "uint256"
        }
      ],
      "name": "Borrow",
      "type": "event"
    },
    {
      "anonymous": false,
      "inputs": [
        {
          "indexed": false,
          "internalType": "uint256",
          "name": "orderId",
          "type": "uint256"
        },
        {
          "indexed": false,
          "internalType": "uint256",
          "name": "newPairedPollId",
          "type": "uint256"
        }
      ],
      "name": "ChangePairedPrice",
      "type": "event"
    },
    {
      "anonymous": false,
      "inputs": [
        {
          "indexed": false,
          "internalType": "address",
          "name": "maker",
          "type": "address"
        },
        {
          "indexed": false,
          "internalType": "uint256",
          "name": "poolId",
          "type": "uint256"
        },
        {
          "indexed": false,
          "internalType": "uint256",
          "name": "orderId",
          "type": "uint256"
        },
        {
          "indexed": false,
          "internalType": "uint256",
          "name": "quantity",
          "type": "uint256"
        },
        {
          "indexed": false,
          "internalType": "uint256",
          "name": "pairedPoolId",
          "type": "uint256"
        }
      ],
      "name": "Deposit",
      "type": "event"
    },
    {
      "anonymous": false,
      "inputs": [
        {
          "indexed": false,
          "internalType": "address",
          "name": "borrower",
          "type": "address"
        },
        {
          "indexed": false,
          "internalType": "uint256",
          "name": "quantity",
          "type": "uint256"
        }
      ],
      "name": "DepositInCollateralAccount",
      "type": "event"
    },
    {
      "anonymous": false,
      "inputs": [
        {
          "indexed": false,
          "internalType": "address",
          "name": "borrower",
          "type": "address"
        },
        {
          "indexed": false,
          "internalType": "uint256",
          "name": "reducedDebt",
          "type": "uint256"
        }
      ],
      "name": "LiquidateBorrower",
      "type": "event"
    },
    {
      "anonymous": false,
      "inputs": [
        {
          "indexed": false,
          "internalType": "uint256",
          "name": "positionId",
          "type": "uint256"
        },
        {
          "indexed": false,
          "internalType": "uint256",
          "name": "quantity",
          "type": "uint256"
        }
      ],
      "name": "Repay",
      "type": "event"
    },
    {
      "anonymous": false,
      "inputs": [
        {
          "indexed": false,
          "internalType": "address",
          "name": "taker",
          "type": "address"
        },
        {
          "indexed": false,
          "internalType": "uint256",
          "name": "poolId",
          "type": "uint256"
        },
        {
          "indexed": false,
          "internalType": "uint256",
          "name": "quantity",
          "type": "uint256"
        }
      ],
      "name": "TakeBaseTokens",
      "type": "event"
    },
    {
      "anonymous": false,
      "inputs": [
        {
          "indexed": false,
          "internalType": "address",
          "name": "taker",
          "type": "address"
        },
        {
          "indexed": false,
          "internalType": "uint256",
          "name": "poolId",
          "type": "uint256"
        },
        {
          "indexed": false,
          "internalType": "uint256",
          "name": "quantity",
          "type": "uint256"
        }
      ],
      "name": "TakeQuoteTokens",
      "type": "event"
    },
    {
      "anonymous": false,
      "inputs": [
        {
          "indexed": false,
          "internalType": "uint256",
          "name": "orderId",
          "type": "uint256"
        },
        {
          "indexed": false,
          "internalType": "uint256",
          "name": "quantity",
          "type": "uint256"
        }
      ],
      "name": "Withdraw",
      "type": "event"
    },
    {
      "anonymous": false,
      "inputs": [
        {
          "indexed": false,
          "internalType": "address",
          "name": "borrower",
          "type": "address"
        },
        {
          "indexed": false,
          "internalType": "uint256",
          "name": "_quantity",
          "type": "uint256"
        },
        {
          "indexed": false,
          "internalType": "bool",
          "name": "_inQuote",
          "type": "bool"
        }
      ],
      "name": "WithdrawFromAccount",
      "type": "event"
    },
    {
      "inputs": [],
      "name": "ALPHA",
      "outputs": [
        {
          "internalType": "uint256",
          "name": "",
          "type": "uint256"
        }
      ],
      "stateMutability": "view",
      "type": "function"
    },
    {
      "inputs": [],
      "name": "BETA",
      "outputs": [
        {
          "internalType": "uint256",
          "name": "",
          "type": "uint256"
        }
      ],
      "stateMutability": "view",
      "type": "function"
    },
    {
      "inputs": [],
      "name": "GenesisPoolId",
      "outputs": [
        {
          "internalType": "uint256",
          "name": "",
          "type": "uint256"
        }
      ],
      "stateMutability": "view",
      "type": "function"
    },
    {
      "inputs": [],
      "name": "LIQUIDATION_FEE",
      "outputs": [
        {
          "internalType": "uint256",
          "name": "",
          "type": "uint256"
        }
      ],
      "stateMutability": "view",
      "type": "function"
    },
    {
      "inputs": [],
      "name": "MAX_ORDERS",
      "outputs": [
        {
          "internalType": "uint256",
          "name": "",
          "type": "uint256"
        }
      ],
      "stateMutability": "view",
      "type": "function"
    },
    {
      "inputs": [],
      "name": "MAX_POSITIONS",
      "outputs": [
        {
          "internalType": "uint256",
          "name": "",
          "type": "uint256"
        }
      ],
      "stateMutability": "view",
      "type": "function"
    },
    {
      "inputs": [],
      "name": "MIN_ROUNDS",
      "outputs": [
        {
          "internalType": "uint256",
          "name": "",
          "type": "uint256"
        }
      ],
      "stateMutability": "view",
      "type": "function"
    },
    {
      "inputs": [],
      "name": "PHI",
      "outputs": [
        {
          "internalType": "uint256",
          "name": "",
          "type": "uint256"
        }
      ],
      "stateMutability": "view",
      "type": "function"
    },
    {
      "inputs": [],
      "name": "YEAR",
      "outputs": [
        {
          "internalType": "uint256",
          "name": "",
          "type": "uint256"
        }
      ],
      "stateMutability": "view",
      "type": "function"
    },
    {
      "inputs": [],
      "name": "baseToken",
      "outputs": [
        {
          "internalType": "contract IERC20",
          "name": "",
          "type": "address"
        }
      ],
      "stateMutability": "view",
      "type": "function"
    },
    {
      "inputs": [
        {
          "internalType": "uint256",
          "name": "_poolId",
          "type": "uint256"
        },
        {
          "internalType": "uint256",
          "name": "_quantity",
          "type": "uint256"
        }
      ],
      "name": "borrow",
      "outputs": [],
      "stateMutability": "nonpayable",
      "type": "function"
    },
    {
      "inputs": [],
      "name": "chainlinkFeedIsActive",
      "outputs": [
        {
          "internalType": "bool",
          "name": "",
          "type": "bool"
        }
      ],
      "stateMutability": "view",
      "type": "function"
    },
    {
      "inputs": [
        {
          "internalType": "uint256",
          "name": "_orderId",
          "type": "uint256"
        },
        {
          "internalType": "uint256",
          "name": "_newPairedPoolId",
          "type": "uint256"
        }
      ],
      "name": "changePairedPrice",
      "outputs": [],
      "stateMutability": "nonpayable",
      "type": "function"
    },
    {
      "inputs": [
        {
          "internalType": "uint256",
          "name": "_poolId",
          "type": "uint256"
        },
        {
          "internalType": "uint256",
          "name": "_quantity",
          "type": "uint256"
        },
        {
          "internalType": "uint256",
          "name": "_pairedPoolId",
          "type": "uint256"
        }
      ],
      "name": "deposit",
      "outputs": [],
      "stateMutability": "nonpayable",
      "type": "function"
    },
    {
      "inputs": [
        {
          "internalType": "uint256",
          "name": "_quantity",
          "type": "uint256"
        }
      ],
      "name": "depositInCollateralAccount",
      "outputs": [],
      "stateMutability": "nonpayable",
      "type": "function"
    },
    {
      "inputs": [
        {
          "internalType": "address",
          "name": "_user",
          "type": "address"
        }
      ],
      "name": "getUserBorrowFromIds",
      "outputs": [
        {
          "internalType": "uint256[3]",
          "name": "",
          "type": "uint256[3]"
        }
      ],
      "stateMutability": "view",
      "type": "function"
    },
    {
      "inputs": [
        {
          "internalType": "address",
          "name": "_user",
          "type": "address"
        }
      ],
      "name": "getUserDepositIds",
      "outputs": [
        {
          "internalType": "uint256[6]",
          "name": "",
          "type": "uint256[6]"
        }
      ],
      "stateMutability": "view",
      "type": "function"
    },
    {
      "inputs": [
        {
          "internalType": "uint256",
          "name": "poolId",
          "type": "uint256"
        }
      ],
      "name": "limitPrice",
      "outputs": [
        {
          "internalType": "uint256",
          "name": "",
          "type": "uint256"
        }
      ],
      "stateMutability": "view",
      "type": "function"
    },
    {
      "inputs": [
        {
          "internalType": "address",
          "name": "_user",
          "type": "address"
        },
        {
          "internalType": "uint256",
          "name": "_suppliedQuotes",
          "type": "uint256"
        }
      ],
      "name": "liquidateUser",
      "outputs": [],
      "stateMutability": "nonpayable",
      "type": "function"
    },
    {
      "inputs": [],
      "name": "liquidationLTV",
      "outputs": [
        {
          "internalType": "uint256",
          "name": "",
          "type": "uint256"
        }
      ],
      "stateMutability": "view",
      "type": "function"
    },
    {
      "inputs": [],
      "name": "manualPriceFeed",
      "outputs": [
        {
          "internalType": "uint256",
          "name": "",
          "type": "uint256"
        }
      ],
      "stateMutability": "view",
      "type": "function"
    },
    {
      "inputs": [],
      "name": "minDepositBase",
      "outputs": [
        {
          "internalType": "uint256",
          "name": "",
          "type": "uint256"
        }
      ],
      "stateMutability": "view",
      "type": "function"
    },
    {
      "inputs": [],
      "name": "minDepositQuote",
      "outputs": [
        {
          "internalType": "uint256",
          "name": "",
          "type": "uint256"
        }
      ],
      "stateMutability": "view",
      "type": "function"
    },
    {
      "inputs": [
        {
          "internalType": "uint256",
          "name": "orderId",
          "type": "uint256"
        }
      ],
      "name": "orders",
      "outputs": [
        {
          "internalType": "uint256",
          "name": "poolId",
          "type": "uint256"
        },
        {
          "internalType": "address",
          "name": "maker",
          "type": "address"
        },
        {
          "internalType": "uint256",
          "name": "pairedPoolId",
          "type": "uint256"
        },
        {
          "internalType": "uint256",
          "name": "quantity",
          "type": "uint256"
        },
        {
          "internalType": "uint256",
          "name": "orderWeightedRate",
          "type": "uint256"
        }
      ],
      "stateMutability": "view",
      "type": "function"
    },
    {
      "inputs": [
        {
          "internalType": "uint256",
          "name": "poolId",
          "type": "uint256"
        }
      ],
      "name": "pools",
      "outputs": [
        {
          "internalType": "uint256",
          "name": "deposits",
          "type": "uint256"
        },
        {
          "internalType": "uint256",
          "name": "borrows",
          "type": "uint256"
        },
        {
          "internalType": "uint256",
          "name": "lastTimeStamp",
          "type": "uint256"
        },
        {
          "internalType": "uint256",
          "name": "timeWeightedRate",
          "type": "uint256"
        },
        {
          "internalType": "uint256",
          "name": "timeUrWeightedRate",
          "type": "uint256"
        },
        {
          "internalType": "uint256",
          "name": "topOrder",
          "type": "uint256"
        },
        {
          "internalType": "uint256",
          "name": "bottomOrder",
          "type": "uint256"
        },
        {
          "internalType": "uint256",
          "name": "topPosition",
          "type": "uint256"
        },
        {
          "internalType": "uint256",
          "name": "bottomPosition",
          "type": "uint256"
        }
      ],
      "stateMutability": "view",
      "type": "function"
    },
    {
      "inputs": [
        {
          "internalType": "uint256",
          "name": "positionId",
          "type": "uint256"
        }
      ],
      "name": "positions",
      "outputs": [
        {
          "internalType": "uint256",
          "name": "poolId",
          "type": "uint256"
        },
        {
          "internalType": "address",
          "name": "borrower",
          "type": "address"
        },
        {
          "internalType": "uint256",
          "name": "borrowedAssets",
          "type": "uint256"
        },
        {
          "internalType": "uint256",
          "name": "positionWeightedRate",
          "type": "uint256"
        }
      ],
      "stateMutability": "view",
      "type": "function"
    },
    {
      "inputs": [],
      "name": "priceStep",
      "outputs": [
        {
          "internalType": "uint256",
          "name": "",
          "type": "uint256"
        }
      ],
      "stateMutability": "view",
      "type": "function"
    },
    {
      "inputs": [],
      "name": "quoteToken",
      "outputs": [
        {
          "internalType": "contract IERC20",
          "name": "",
          "type": "address"
        }
      ],
      "stateMutability": "view",
      "type": "function"
    },
    {
      "inputs": [
        {
          "internalType": "uint256",
          "name": "_positionId",
          "type": "uint256"
        },
        {
          "internalType": "uint256",
          "name": "_quantity",
          "type": "uint256"
        }
      ],
      "name": "repay",
      "outputs": [],
      "stateMutability": "nonpayable",
      "type": "function"
    },
    {
      "inputs": [
        {
          "internalType": "uint256",
          "name": "_newPrice",
          "type": "uint256"
        }
      ],
      "name": "setPriceFeed",
      "outputs": [],
      "stateMutability": "nonpayable",
      "type": "function"
    },
    {
      "inputs": [],
      "name": "switchPriceFeed",
      "outputs": [],
      "stateMutability": "nonpayable",
      "type": "function"
    },
    {
      "inputs": [
        {
          "internalType": "uint256",
          "name": "_poolId",
          "type": "uint256"
        },
        {
          "internalType": "uint256",
          "name": "_takenQuantity",
          "type": "uint256"
        }
      ],
      "name": "takeBaseTokens",
      "outputs": [],
      "stateMutability": "nonpayable",
      "type": "function"
    },
    {
      "inputs": [
        {
          "internalType": "uint256",
          "name": "_poolId",
          "type": "uint256"
        },
        {
          "internalType": "uint256",
          "name": "_takenQuantity",
          "type": "uint256"
        }
      ],
      "name": "takeQuoteTokens",
      "outputs": [],
      "stateMutability": "nonpayable",
      "type": "function"
    },
    {
      "inputs": [
        {
          "internalType": "address",
          "name": "user",
          "type": "address"
        }
      ],
      "name": "users",
      "outputs": [
        {
          "internalType": "uint256",
          "name": "baseAccount",
          "type": "uint256"
        },
        {
          "internalType": "uint256",
          "name": "quoteAccount",
          "type": "uint256"
        }
      ],
      "stateMutability": "view",
      "type": "function"
    },
    {
      "inputs": [
        {
          "internalType": "uint256",
          "name": "_poolId",
          "type": "uint256"
        }
      ],
      "name": "viewBorrowingRate",
      "outputs": [
        {
          "internalType": "uint256",
          "name": "",
          "type": "uint256"
        }
      ],
      "stateMutability": "view",
      "type": "function"
    },
    {
      "inputs": [],
      "name": "viewChainlinkPriceFeedLatestAnswer",
      "outputs": [
        {
          "internalType": "int256",
          "name": "",
          "type": "int256"
        }
      ],
      "stateMutability": "view",
      "type": "function"
    },
    {
      "inputs": [
        {
          "internalType": "address",
          "name": "_user",
          "type": "address"
        },
        {
          "internalType": "uint256",
          "name": "_minusCollateral",
          "type": "uint256"
        }
      ],
      "name": "viewIsUserExcessCollateralPositive",
      "outputs": [
        {
          "internalType": "bool",
          "name": "isPositive_",
          "type": "bool"
        }
      ],
      "stateMutability": "view",
      "type": "function"
    },
    {
      "inputs": [
        {
          "internalType": "uint256",
          "name": "_poolId",
          "type": "uint256"
        }
      ],
      "name": "viewLendingRate",
      "outputs": [
        {
          "internalType": "uint256",
          "name": "",
          "type": "uint256"
        }
      ],
      "stateMutability": "view",
      "type": "function"
    },
    {
      "inputs": [
        {
          "internalType": "bool",
          "name": "_isBuyOrder",
          "type": "bool"
        }
      ],
      "name": "viewMinDeposit",
      "outputs": [
        {
          "internalType": "uint256",
          "name": "",
          "type": "uint256"
        }
      ],
      "stateMutability": "view",
      "type": "function"
    },
    {
      "inputs": [
        {
          "internalType": "uint256",
          "name": "_poolId",
          "type": "uint256"
        }
      ],
      "name": "viewPoolAvailableAssets",
      "outputs": [
        {
          "internalType": "uint256",
          "name": "",
          "type": "uint256"
        }
      ],
      "stateMutability": "view",
      "type": "function"
    },
    {
      "inputs": [
        {
          "internalType": "uint256",
          "name": "_poolId",
          "type": "uint256"
        }
      ],
      "name": "viewPoolBorrow",
      "outputs": [
        {
          "internalType": "uint256",
          "name": "",
          "type": "uint256"
        }
      ],
      "stateMutability": "view",
      "type": "function"
    },
    {
      "inputs": [
        {
          "internalType": "uint256",
          "name": "_poolId",
          "type": "uint256"
        }
      ],
      "name": "viewPoolDeposit",
      "outputs": [
        {
          "internalType": "uint256",
          "name": "",
          "type": "uint256"
        }
      ],
      "stateMutability": "view",
      "type": "function"
    },
    {
      "inputs": [],
      "name": "viewPriceFeed",
      "outputs": [
        {
          "internalType": "uint256",
          "name": "",
          "type": "uint256"
        }
      ],
      "stateMutability": "view",
      "type": "function"
    },
    {
      "inputs": [
        {
          "internalType": "uint256",
          "name": "_positionId",
          "type": "uint256"
        }
      ],
      "name": "viewUserBorrow",
      "outputs": [
        {
          "internalType": "uint256",
          "name": "",
          "type": "uint256"
        }
      ],
      "stateMutability": "view",
      "type": "function"
    },
    {
      "inputs": [
        {
          "internalType": "address",
          "name": "_user",
          "type": "address"
        },
        {
          "internalType": "uint256",
          "name": "_minusCollateral",
          "type": "uint256"
        }
      ],
      "name": "viewUserExcessCollateral",
      "outputs": [
        {
          "internalType": "bool",
          "name": "isPositive_",
          "type": "bool"
        },
        {
          "internalType": "uint256",
          "name": "excessCollateral_",
          "type": "uint256"
        }
      ],
      "stateMutability": "view",
      "type": "function"
    },
    {
      "inputs": [
        {
          "internalType": "uint256",
          "name": "_orderId",
          "type": "uint256"
        }
      ],
      "name": "viewUserQuoteDeposit",
      "outputs": [
        {
          "internalType": "uint256",
          "name": "",
          "type": "uint256"
        }
      ],
      "stateMutability": "view",
      "type": "function"
    },
    {
      "inputs": [
        {
          "internalType": "address",
          "name": "_borrower",
          "type": "address"
        }
      ],
      "name": "viewUserRequiredCollateral",
      "outputs": [
        {
          "internalType": "uint256",
          "name": "requiredCollateral_",
          "type": "uint256"
        }
      ],
      "stateMutability": "view",
      "type": "function"
    },
    {
      "inputs": [
        {
          "internalType": "address",
          "name": "_user",
          "type": "address"
        },
        {
          "internalType": "bool",
          "name": "_inQuote",
          "type": "bool"
        }
      ],
      "name": "viewUserTotalDeposits",
      "outputs": [
        {
          "internalType": "uint256",
          "name": "totalDeposit_",
          "type": "uint256"
        }
      ],
      "stateMutability": "view",
      "type": "function"
    },
    {
      "inputs": [
        {
          "internalType": "uint256",
          "name": "_poolId",
          "type": "uint256"
        }
      ],
      "name": "viewUtilizationRate",
      "outputs": [
        {
          "internalType": "uint256",
          "name": "utilizationRate_",
          "type": "uint256"
        }
      ],
      "stateMutability": "view",
      "type": "function"
    },
    {
      "inputs": [
        {
          "internalType": "uint256",
          "name": "_orderId",
          "type": "uint256"
        },
        {
          "internalType": "uint256",
          "name": "_removedQuantity",
          "type": "uint256"
        }
      ],
      "name": "withdraw",
      "outputs": [],
      "stateMutability": "nonpayable",
      "type": "function"
    },
    {
      "inputs": [
        {
          "internalType": "uint256",
          "name": "_quantity",
          "type": "uint256"
        },
        {
          "internalType": "bool",
          "name": "_inQuote",
          "type": "bool"
        }
      ],
      "name": "withdrawFromAccount",
      "outputs": [],
      "stateMutability": "nonpayable",
      "type": "function"
    }
  ],
  "bytecode": "0x610140604052600160058190556006556008805460ff60a01b191690553480156200002957600080fd5b50604051620047e3380380620047e38339810160408190526200004c91620000ed565b6001600160a01b039687166080529490951660a05263423a35c660005260016020527f036c4763cc7b0c86f45715ba0a6e6802eb3509fe236c67ed5703db7b917c9b069290925560c05260e0526101009190915261012052600880546001600160a01b03191673694aa1769357215de4fac081bf1f309adc32530617905562000154565b80516001600160a01b0381168114620000e857600080fd5b919050565b600080600080600080600060e0888a0312156200010957600080fd5b6200011488620000d0565b96506200012460208901620000d0565b604089015160608a015160808b015160a08c015160c0909c01519a9d939c50919a90999198509650945092505050565b60805160a05160c05160e05161010051610120516145f9620001ea6000396000818161054e01528181610e9c015261211101526000818161088501526110e201526000818161037a01526110bc01526000818161051f0152818161288f01526129b801526000818161083701528181612ebc01526131cb0152600081816103ed01528181612e82015261319701526145f96000f3fe608060405234801561001057600080fd5b50600436106103405760003560e01c806393254b0e116101bd578063b0bb1c5a116100f9578063ca325085116100a2578063d8aed1451161007c578063d8aed145146108da578063eb8df2d7146108ed578063f62f355614610900578063f7b24e081461051257600080fd5b8063ca32508514610880578063cdc9de45146108a7578063d4e4487d146108ba57600080fd5b8063c55dae63116100d3578063c55dae6314610832578063c5c0fdae14610859578063c7f9c7a01461086d57600080fd5b8063b0bb1c5a146107f8578063b182733014610800578063b233ade61461080857600080fd5b8063a70e945711610166578063a85c38ef11610140578063a85c38ef14610693578063a87430ba14610709578063a9b1288d14610745578063ac4afa381461075857600080fd5b8063a70e94571461064a578063a7608a0b1461066d578063a7a5a96d1461068057600080fd5b806399fbab881161019757806399fbab88146105bd578063a3f81e8814610624578063a450dcc11461063757600080fd5b806393254b0e1461057057806397453aea1461057857806399ad17d41461058157600080fd5b806335dcecd31161028c5780637efdfe9011610235578063843cbbc61161020f578063843cbbc61461051257806388d519c41461051a57806390d0378314610541578063921b2fb71461054957600080fd5b80637efdfe90146104e15780638120ace7146104f4578063839145401461050757600080fd5b806351d15e391161026657806351d15e39146104bb57806366afe4b3146104c657806379a4af65146104ce57600080fd5b806335dcecd31461048d578063413eb44714610495578063441a3e70146104a857600080fd5b806316083e44116102ee5780632eba9ca9116102c85780632eba9ca91461043a5780632f8ac59b1461044d5780633394e6b71461046d57600080fd5b806316083e44146103d5578063217a4b70146103e85780632c06a0ba1461042757600080fd5b80630ecbcdab1161031f5780630ecbcdab1461039c578063112fe892146103af57806314b232ee146103c257600080fd5b8062aeef8a14610345578063071a75411461035a5780630b45998a14610375575b600080fd5b61035861035336600461424f565b610913565b005b610362610cb8565b6040519081526020015b60405180910390f35b6103627f000000000000000000000000000000000000000000000000000000000000000081565b6103586103aa36600461427b565b610cdb565b6103626103bd36600461429d565b611012565b6103586103d036600461429d565b600755565b6103626103e336600461429d565b611076565b61040f7f000000000000000000000000000000000000000000000000000000000000000081565b6040516001600160a01b03909116815260200161036c565b6103626104353660046142c4565b6110ae565b6103586104483660046142f8565b611107565b61036261045b36600461429d565b60016020526000908152604090205481565b61048061047b366004614322565b61127b565b60405161036c919061433d565b6103626112d3565b6103626104a3366004614322565b611358565b6103586104b636600461427b565b611438565b61036263423a35c681565b61036261172f565b6103626104dc36600461429d565b611744565b6103626104ef36600461429d565b6117c6565b61036261050236600461436e565b611813565b6103626301e1338081565b610362600381565b6103627f000000000000000000000000000000000000000000000000000000000000000081565b610362611933565b6103627f000000000000000000000000000000000000000000000000000000000000000081565b610362600681565b61036260075481565b600880547fffffffffffffffffffffff00ffffffffffffffffffffffffffffffffffffffff8116600160a01b9182900460ff1615909102179055005b6105fc6105cb36600461429d565b600460205260009081526040902080546001820154600283015460039093015491926001600160a01b039091169184565b604080519485526001600160a01b03909316602085015291830152606082015260800161036c565b61036261063236600461429d565b61195b565b61035861064536600461427b565b611994565b61065d6106583660046142f8565b611b6e565b604051901515815260200161036c565b61036261067b36600461429d565b611b82565b61035861068e3660046143a5565b611bcb565b6106d96106a136600461429d565b60026020819052600091825260409091208054600182015492820154600383015460049093015491936001600160a01b031692909185565b604080519586526001600160a01b039094166020860152928401919091526060830152608082015260a00161036c565b610730610717366004614322565b6003602052600090815260409020805460019091015482565b6040805192835260208301919091520161036c565b61035861075336600461427b565b611dc7565b6107b461076636600461429d565b600060205280600052604060002060009150905080600201549080600301549080600401549080600501549080600601549080600701549080600801549080600901549080600a0154905089565b60408051998a5260208a0198909852968801959095526060870193909352608086019190915260a085015260c084015260e08301526101008201526101200161036c565b6103626120c4565b6103626120da565b61081b6108163660046142f8565b6120ef565b60408051921515835260208301919091520161036c565b61040f7f000000000000000000000000000000000000000000000000000000000000000081565b60085461065d90600160a01b900460ff1681565b61036261087b36600461429d565b61216d565b6103627f000000000000000000000000000000000000000000000000000000000000000081565b6103586108b536600461429d565b6121d6565b6108cd6108c8366004614322565b612282565b60405161036c91906143ca565b6103586108e836600461427b565b6122da565b6103626108fb36600461429d565b612580565b61035861090e36600461427b565b6125c8565b600082116109575760405162461bcd60e51b815260206004820152600c60248201526b4465706f736974207a65726f60a01b60448201526064015b60405180910390fd5b6000610962846127f3565b9050801515610970836127f3565b1515036109bf5760405162461bcd60e51b815260206004820152601160248201527f57726f6e672070616972656420706f6f6c000000000000000000000000000000604482015260640161094e565b6109c884612814565b610a145760405162461bcd60e51b815260206004820152601360248201527f4c696d697420707269636520746f6f2066617200000000000000000000000000604482015260640161094e565b610a1d816110ae565b831015610a6c5760405162461bcd60e51b815260206004820152601460248201527f4e6f7420656e6f756768206465706f7369746564000000000000000000000000604482015260640161094e565b8015610b2b57610a7b82612814565b610ac75760405162461bcd60e51b815260206004820152601460248201527f50616972656420707269636520746f6f20666172000000000000000000000000604482015260640161094e565b610ad18483612ab8565b610b1d5760405162461bcd60e51b815260206004820152601360248201527f496e636f6e73697374656e742070726963657300000000000000000000000000604482015260640161094e565b610b2684612ad6565b610b79565b8115610b795760405162461bcd60e51b815260206004820152601560248201527f4e6f6e207a65726f207061697265642070726963650000000000000000000000604482015260640161094e565b610b8284612be0565b15610bcf5760405162461bcd60e51b815260206004820152601360248201527f4f6e676f696e67206c69717569646174696f6e00000000000000000000000000604482015260640161094e565b6000610bdc338685612c2b565b905080600003610bf957610bf285338587612d47565b9050610c2f565b8115610c0857610c0881612e34565b60008181526002602052604081206003018054869290610c29908490614408565b90915550505b60008581526020819052604081206002018054869290610c50908490614408565b90915550610c619050338584612e6f565b604080513381526020810187905290810182905260608101859052608081018490527f7162984403f6c73c8639375d45a9187dfd04602231bd8e587c415718b5f7e5f99060a0015b60405180910390a15050505050565b6103e8610cce670de0b6b3a7640000600f61441b565b610cd89190614448565b81565b60008111610d2b5760405162461bcd60e51b815260206004820152600b60248201527f426f72726f77207a65726f000000000000000000000000000000000000000000604482015260640161094e565b610d34826127f3565b610d805760405162461bcd60e51b815260206004820152600f60248201527f43616e6e6f7420626f72726f775f300000000000000000000000000000000000604482015260640161094e565b600082815260208190526040902060020154610dde5760405162461bcd60e51b815260206004820152600c60248201527f506f6f6c5f656d7074795f310000000000000000000000000000000000000000604482015260640161094e565b610de782612be0565b15610e345760405162461bcd60e51b815260206004820152600f60248201527f43616e6e6f7420626f72726f775f310000000000000000000000000000000000604482015260640161094e565b610e3d82612ad6565b610e4682612580565b811115610e955760405162461bcd60e51b815260206004820152601160248201527f426f72726f7720746f6f206d7563685f32000000000000000000000000000000604482015260640161094e565b6000610ee17f0000000000000000000000000000000000000000000000000000000000000000610edb846001600088815260200190815260200160002054600180612ee4565b90612f7e565b9050610eed3382611b6e565b610f395760405162461bcd60e51b815260206004820152601160248201527f426f72726f7720746f6f206d7563685f33000000000000000000000000000000604482015260640161094e565b6000610f453385612f93565b90508015610f8257610f5681613044565b60008181526004602052604081206002018054859290610f77908490614408565b90915550610f909050565b610f8d84338561307f565b90505b60008481526020819052604081206003018054859290610fb1908490614408565b90915550610fc3905033846001613184565b6040805133815260208101869052908101829052606081018490527f13ed6866d4e1ee6da46f845c46d7e54120883d75c5ea9a2dacc1c4ca8984ab80906080015b60405180910390a150505050565b6000611046611020836117c6565b6103e8611036670de0b6b3a7640000600f61441b565b6110409190614448565b906131f2565b6103e861105c670de0b6b3a7640000600561441b565b6110669190614448565b6110709190614408565b92915050565b60008181526020819052604081206003015461109d8161104061109886613207565b613245565b6110a79082614408565b9392505050565b60006001821515146110e0577f0000000000000000000000000000000000000000000000000000000000000000611070565b7f000000000000000000000000000000000000000000000000000000000000000092915050565b600081116111575760405162461bcd60e51b815260206004820152600b60248201527f537570706c79207a65726f000000000000000000000000000000000000000000604482015260640161094e565b611162826000611b6e565b156111af5760405162461bcd60e51b815260206004820152600760248201527f536f6c76656e7400000000000000000000000000000000000000000000000000604482015260640161094e565b60006111bb8383613299565b9050600061120160646111d7670de0b6b3a7640000600361441b565b6111e19190614448565b6111f390670de0b6b3a7640000614408565b6111fb611933565b9061343f565b905060006112128383600184612ee4565b905060006112208683613454565b905061122e33856001612e6f565b61123a33826000613184565b60408051338152602081018690527f2abb5e617e86cbb8daebc0bc21bd36aa3036fcb0569984b8e19c954b6464f5ad910160405180910390a1505050505050565b611283614213565b6001600160a01b03821660009081526003602081905260409182902082516060810193849052926008909101919082845b8154815260200190600101908083116112b45750505050509050919050565b600080600860009054906101000a90046001600160a01b03166001600160a01b031663feaf968c6040518163ffffffff1660e01b815260040160a060405180830381865afa158015611329573d6000803e3d6000fd5b505050506040513d601f19601f8201168201806040525081019061134d9190614476565b509195945050505050565b6001600160a01b0381166000908152600360208190526040808320815160608101928390528493909260089092019182845b81548152602001906001019080831161138a575050505050905060005b60038110156114315760008282600381106113c4576113c46144c6565b602002015190506000600460008381526020019081526020016000206002015411156114285761141b6113f682611744565b6000838152600460209081526040808320548352600191829052909120549080612ee4565b6114259085614408565b93505b506001016113a7565b5050919050565b600081116114765760405162461bcd60e51b815260206004820152600b60248201526a52656d6f7665207a65726f60a81b604482015260640161094e565b600082815260026020818152604092839020835160a0810185528154815260018201546001600160a01b031692810192909252918201549281019290925260038101546060830181905260049091015460808301526115025760405162461bcd60e51b815260206004820152600860248201526727379037b93232b960c11b604482015260640161094e565b60208101516001600160a01b0316331461155e5760405162461bcd60e51b815260206004820152600960248201527f4e6f74206d616b65720000000000000000000000000000000000000000000000604482015260640161094e565b600061156d82600001516127f3565b905080156115f357815161158090612ad6565b6000848152600260205260409020546115999084613628565b6115e55760405162461bcd60e51b815260206004820152601160248201527f52656d6f766520746f6f206d7563685f31000000000000000000000000000000604482015260640161094e565b6115ee84612e34565b611649565b6115fd3384611b6e565b6116495760405162461bcd60e51b815260206004820152601160248201527f52656d6f766520746f6f206d7563685f32000000000000000000000000000000604482015260640161094e565b6116538484613663565b61169f5760405162461bcd60e51b815260206004820152601160248201527f52656d6f766520746f6f206d7563685f33000000000000000000000000000000604482015260640161094e565b600084815260026020526040812060030180548592906116c09084906144dc565b90915550508151600090815260208190526040812060020180548592906116e89084906144dc565b909155506116f99050338483613184565b60408051858152602081018590527f56ca301a9219608c91e7bcee90e083c19671d2cdcc96752c7af291cee5f9c8c89101611004565b600a610cce670de0b6b3a7640000600961441b565b60008181526004602052604081208054600390910154829061176583613207565b6000848152602081905260409020600501546117819190614408565b61178b91906144dc565b6000858152600460205260409020600201549091506117b3816117ad84613245565b906136e2565b6117bd9082614408565b95945050505050565b6000818152602081905260408120600201548082036117e8576000915061180d565b6000838152602081905260409020600301546110a790670de0b6b3a7640000836136f3565b50919050565b6001600160a01b038216600090815260036020526040808220815160c0810192839052839290916002019060069082845b81548152602001906001019080831161184457505050505090508261187f576001600160a01b03841660009081526003602052604090205491505b60005b600681101561192b578315156118c3600260008585600681106118a7576118a76144c6565b60200201518152602001908152602001600020600001546127f3565b151503611923578361190157600260008383600681106118e5576118e56144c6565b6020020151815260200190815260200160002060030154611920565b611920828260068110611916576119166144c6565b602002015161216d565b92505b600101611882565b505092915050565b600854600090600160a01b900460ff1661194e575060075490565b6119566112d3565b905090565b600081815260208190526040812060030154156119875761107061197e836117c6565b61104084611012565b506000919050565b919050565b600081116119e45760405162461bcd60e51b815260206004820152600960248201527f54616b65207a65726f0000000000000000000000000000000000000000000000604482015260640161094e565b600082815260208190526040902060020154611a425760405162461bcd60e51b815260206004820152600c60248201527f506f6f6c5f656d7074795f330000000000000000000000000000000000000000604482015260640161094e565b611a4b826127f3565b15611a985760405162461bcd60e51b815260206004820152600b60248201527f54616b652071756f746573000000000000000000000000000000000000000000604482015260640161094e565b60008281526020819052604090206002810154821115611aea5760405162461bcd60e51b815260206004820152600d60248201526c0a8c2d6ca40e8dede40daeac6d609b1b604482015260640161094e565b6000611af6848461371f565b60008581526001602052604081205491925090611b169083908380612ee4565b9050611b2433826001612e6f565b611b3033836000613184565b60408051338152602081018790529081018590527f57f9d8e604a5790eef1849c546c9748d58fa7d227ea56ca57d1ab0e19c6565c790606001610ca9565b6000611b7a83836120ef565b509392505050565b60008181526020819052604081206002015481611baa611ba1856117c6565b61104086613207565b9050611bb98261104083613245565b611bc39083614408565b949350505050565b60008211611c095760405162461bcd60e51b815260206004820152600b60248201526a52656d6f7665207a65726f60a81b604482015260640161094e565b80611ced5733600090815260036020526040902054821115611c6d5760405162461bcd60e51b815260206004820152601160248201527f52656d6f766520746f6f206d7563685f34000000000000000000000000000000604482015260640161094e565b611c773383611b6e565b611cc35760405162461bcd60e51b815260206004820152601160248201527f52656d6f766520746f6f206d7563685f35000000000000000000000000000000604482015260640161094e565b3360009081526003602052604081208054849290611ce29084906144dc565b90915550611d779050565b33600090815260036020526040902060010154821115611d4f5760405162461bcd60e51b815260206004820152601160248201527f52656d6f766520746f6f206d7563685f36000000000000000000000000000000604482015260640161094e565b3360009081526003602052604081206001018054849290611d719084906144dc565b90915550505b611d82338383613184565b60408051338152602081018490528215158183015290517f29f5eca1761eb8f94f6b79bba3e22c1413d9345f4fd25719efdf3bbccc8b00d69181900360600190a15050565b600082815260208190526040902060020154611e255760405162461bcd60e51b815260206004820152600c60248201527f506f6f6c5f656d7074795f320000000000000000000000000000000000000000604482015260640161094e565b611e2e826127f3565b611e7a5760405162461bcd60e51b815260206004820152601060248201527f54616b65206261736520746f6b656e7300000000000000000000000000000000604482015260640161094e565b6000828152602081905260409020611e9183612be0565b611edd5760405162461bcd60e51b815260206004820152600e60248201527f4e6f742070726f66697461626c65000000000000000000000000000000000000604482015260640161094e565b611ee683612ad6565b6000611ef1846117c6565b9050611f06670de0b6b3a7640000600161441b565b8110611f545760405162461bcd60e51b815260206004820152600f60248201527f4e6f7468696e6720746f2074616b650000000000000000000000000000000000604482015260640161094e565b60028201546003830154611f689085614408565b1115611fa65760405162461bcd60e51b815260206004820152600d60248201526c0a8c2d6ca40e8dede40daeac6d609b1b604482015260640161094e565b6000611fc682611fbe81670de0b6b3a76400006144dc565b8691906136f3565b905060008115611fdd57611fda86836138ef565b90505b6000611ff287611fed8489614408565b6139fd565b9050600061203982846040518060400160405280600681526020017f6572725f30310000000000000000000000000000000000000000000000000000815250600115613b6e565b9050600061205e82600160008c81526020019081526020016000205460018015612ee4565b905061206c33826000612e6f565b61207833836001613184565b60408051338152602081018b90529081018990527f02fbdc011fab383924a1a184b9b49a9c0ebbbedc5f80ec3bef2b690c577f21489060600160405180910390a1505050505050505050565b6103e8610cce670de0b6b3a7640000600561441b565b6064610cce670de0b6b3a7640000600361441b565b60008080836120fe8683611813565b61210891906144dc565b905060006121397f0000000000000000000000000000000000000000000000000000000000000000610edb88611358565b9050808210612157576001935061215081836144dc565b9250612164565b61216182826144dc565b92505b50509250929050565b60008181526002602052604081208054600490910154829061218e83613ba9565b6000848152602081905260409020600601546121aa9190614408565b6121b491906144dc565b6000858152600260205260409020600301549091506117b3816117ad84613bc0565b600081116122155760405162461bcd60e51b815260206004820152600c60248201526b4465706f736974207a65726f60a01b604482015260640161094e565b3360009081526003602052604081208054839290612234908490614408565b90915550612246905033826000612e6f565b60408051338152602081018390527f2a75c57b72a68c0a27400f8d77a854965210fee6e3bc0de565c12fdccc1b7f8e910160405180910390a150565b61228a614231565b6001600160a01b03821660009081526003602052604090819020815160c0810190925260020160068282826020028201918154815260200190600101908083116112b45750505050509050919050565b6000811161232a5760405162461bcd60e51b815260206004820152600a60248201527f5265706179207a65726f00000000000000000000000000000000000000000000604482015260640161094e565b60008281526004602090815260409182902082516080810184528154815260018201546001600160a01b0316928101929092526002810154928201839052600301546060820152906123be5760405162461bcd60e51b815260206004820152600d60248201527f4e6f7420626f72726f77696e6700000000000000000000000000000000000000604482015260640161094e565b60208101516001600160a01b0316331461241a5760405162461bcd60e51b815260206004820152600c60248201527f4e6f7420426f72726f7765720000000000000000000000000000000000000000604482015260640161094e565b8051612425906127f3565b6124715760405162461bcd60e51b815260206004820152601360248201527f4e6f6e20626f72726f7761626c6520706f6f6c00000000000000000000000000604482015260640161094e565b805161247c90612ad6565b61248583613044565b6000838152600460205260409020600201548211156124e65760405162461bcd60e51b815260206004820152600e60248201527f526570617920746f6f206d756368000000000000000000000000000000000000604482015260640161094e565b600083815260046020526040812060020180548492906125079084906144dc565b909155505080516000908152602081905260408120600301805484929061252f9084906144dc565b90915550612541905033836001612e6f565b60408051848152602081018490527f552544cb36551120f07c66c5cd4b2987725a0c72198587f2ce796099bb66c58c91015b60405180910390a1505050565b600081815260208190526040812060038101546002909101546110709183916125b890600a611036670de0b6b3a7640000600961441b565b6125c291906144dc565b90613bfd565b600082815260026020818152604092839020835160a0810185528154815260018201546001600160a01b031692810183905292810154938301939093526003830154606083015260049092015460808201529033146126695760405162461bcd60e51b815260206004820152600a60248201527f4f6e6c79206d616b657200000000000000000000000000000000000000000000604482015260640161094e565b60008160600151116126a85760405162461bcd60e51b815260206004820152600860248201526727379037b93232b960c11b604482015260640161094e565b806040015182036126fb5760405162461bcd60e51b815260206004820152600a60248201527f53616d6520707269636500000000000000000000000000000000000000000000604482015260640161094e565b80516127079083612ab8565b6127535760405162461bcd60e51b815260206004820152601360248201527f496e636f6e73697374656e742070726963657300000000000000000000000000604482015260640161094e565b61275c82612814565b6127a85760405162461bcd60e51b815260206004820152601460248201527f50616972656420707269636520746f6f20666172000000000000000000000000604482015260640161094e565b60008381526002602081815260409283902090910184905581518581529081018490527f8af228f7685c5b2f7bf1604f1460e7eea6373f68a6a14f59ad7c134e8b31f2d09101612573565b60006128006002836144ef565b1561280c576000611070565b600192915050565b6000818152600160205260408120546005908203612aa25760015b818111612aa057600060018161284584886144dc565b815260200190815260200160002054111561296a57805b801561296457600261286e82876144dc565b612879906001614408565b61288391906144ef565b600003612908576128d97f0000000000000000000000000000000000000000000000000000000000000000600160006128bc858a6144dc565b8152602001908152602001600020546131f290919063ffffffff16565b600160006128e784896144dc565b6128f2906001614408565b8152602081019190915260400160002055612952565b6001600061291683886144dc565b81526020019081526020016000205460016000838861293591906144dc565b612940906001614408565b81526020810191909152604001600020555b8061295c81614503565b91505061285c565b50612aa0565b60006001816129798488614408565b8152602001908152602001600020541115612a8e57805b80156129645760026129a28287614408565b6129ac91906144ef565b600003612a3157612a027f0000000000000000000000000000000000000000000000000000000000000000600160006129e5858a614408565b81526020019081526020016000205461343f90919063ffffffff16565b6001600081612a11858a614408565b612a1b91906144dc565b8152602081019190915260400160002055612a7c565b60016000612a3f8388614408565b8152602001908152602001600020546001600060018489612a609190614408565b612a6a91906144dc565b81526020810191909152604001600020555b80612a8681614503565b915050612990565b80612a988161451a565b91505061282f565b505b5050600090815260016020526040902054151590565b6000612ac3836127f3565b612ad057828211156110a7565b50101590565b6000612ae182613207565b9050806000808481526020019081526020016000206005016000828254612b089190614408565b90915550612b219050612b1a836117c6565b82906131f2565b60008381526020819052604081206006018054909190612b42908490614408565b9091555050600082815260208190526040902060030154612b668161104084613245565b612b709082614408565b6000848152602081905260408120600381019290925560029091015490612ba0612b99866117c6565b85906131f2565b9050612baf8261104083613245565b612bb99083614408565b60009586526020869052604090952060028101959095555050426004909301929092555050565b600080612beb611933565b9050612bf6836127f3565b15612c135760009283526001602052604090922054909110919050565b60009283526001602052604090922054909111919050565b6001600160a01b038316600090815260036020526040808220815160c0810192839052839290916002019060069082845b815481526020019060010190808311612c5c575050505050905060005b6006811015612d3e57600060026000848460068110612c9a57612c9a6144c6565b602090810291909101518252818101929092526040908101600020815160a081018352815480825260018301546001600160a01b03169482019490945260028201549281019290925260038101546060830152600401546080820152915086148015612d115750841580612d115750806040015185145b15612d3557828260068110612d2857612d286144c6565b6020020151935050612d3e565b50600101612c79565b50509392505050565b600080612d53866127f3565b612d5e576000612d71565b6000868152602081905260409020600601545b6040805160a0810182528881526001600160a01b0388811660208084019182528385018a8152606085018a815260808601888152600580546000818152600296879052998a2089518155965160018801805473ffffffffffffffffffffffffffffffffffffffff191691909916179097559251938501939093555160038401559051600490920191909155805491965093945090929091612e118361451a565b9190505550612e208684613c0c565b612e2a8784613cf2565b5050949350505050565b612e3d8161216d565b600082815260026020818152604080842060038101959095558454845283825283206006015494909252905260040155565b8015612eaf57612eaa6001600160a01b037f000000000000000000000000000000000000000000000000000000000000000016843085613d2e565b505050565b612eaa6001600160a01b037f000000000000000000000000000000000000000000000000000000000000000016843085613d2e565b6000808411612f355760405162461bcd60e51b815260206004820152600d60248201527f5072696365206973207a65726f00000000000000000000000000000000000000604482015260640161094e565b8115612f605782612f4f57612f4a85856136e2565b612f59565b612f598585612f7e565b9050611bc3565b82612f7457612f6f85856131f2565b6117bd565b6117bd858561343f565b60006110a783670de0b6b3a7640000846136f3565b6001600160a01b0382166000908152600360208190526040808320815160608101928390528493909260089092019182845b815481526020019060010190808311612fc5575050505050905060005b600381101561192b578360046000848460038110613002576130026144c6565b60200201518152602001908152602001600020600001540361303c57818160038110613030576130306144c6565b6020020151925061192b565b600101612fe2565b61304d81611744565b600082815260046020818152604080842060028101959095558454845283825283206005015494909252905260030155565b6000600161308c856127f3565b156130a557506000848152602081905260409020600501545b604080516080810182528681526001600160a01b03868116602080840191825283850188815260608501878152600680546000818152600490955297842087518155945160018601805473ffffffffffffffffffffffffffffffffffffffff19169190971617909555905160028401555160039092019190915581549395509192916131308361451a565b919050555061313f3384613db0565b600086815260208181526040808320600981018054855260019091018352908320869055888352908290528054916131768361451a565b919050555050509392505050565b80156131be57612eaa6001600160a01b037f0000000000000000000000000000000000000000000000000000000000000000168484613ea4565b612eaa6001600160a01b037f0000000000000000000000000000000000000000000000000000000000000000168484613ea4565b60006110a78383670de0b6b3a7640000613ed5565b600081815260208190526040812060040154819061322b9082906125c290426144dc565b90506110a761323984611012565b82906301e133806136f3565b600081816132668280613261670de0b6b3a7640000600261441b565b6136f3565b905060006132828284613261670de0b6b3a7640000600361441b565b90508061328f8385614408565b6117bd9190614408565b6001600160a01b0382166000908152600360208190526040808320815160608101928390528593859391926008019182845b8154815260200190600101908083116132cb575050505050905060005b600381101561343457600060046000848460038110613309576133096144c6565b60209081029190910151825281810192909252604090810160002081516080810183528154815260018201546001600160a01b03169381019390935260028101549183018290526003015460608301529091501561341d57805161336c90612ad6565b61338b838360038110613381576133816144c6565b6020020151613044565b60006133a4826040015186613ee290919063ffffffff16565b90506133b081866144dc565b945080600460008686600381106133c9576133c96144c6565b6020020151815260200190815260200160002060020160008282546133ee91906144dc565b90915550508151600090815260208190526040812060030180548392906134169084906144dc565b9091555050505b8360000361342b5750613434565b506001016132e8565b506117bd82856144dc565b60006110a783670de0b6b3a764000084613ed5565b6001600160a01b0382166000908152600360205260408120548290829061347c908390613ee2565b6001600160a01b0386166000908152600360205260408120805492935083929091906134a99084906144dc565b909155506134b9905081836144dc565b9150811561361e576001600160a01b038516600090815260036020526040808220815160c0810190925260020160068282826020028201915b8154815260200190600101908083116134f2575050505050905060005b600681101561361b57600082826006811061352c5761352c6144c6565b6020020151905060006002600083815260200190815260200160002060030154118015613574575060008181526002602052604090205460019061356f906127f3565b151514155b1561360457600081815260026020526040902060030154613596908690613ee2565b9350836002600083815260200190815260200160002060030160008282546135be91906144dc565b909155506135ce905084866144dc565b600082815260026020818152604080842054845290839052822001805492975086929091906135fe9084906144dc565b90915550505b84600003613612575061361b565b5060010161350f565b50505b6117bd82856144dc565b600082815260208190526040812060030154158061364e575061364a83612580565b8211155b1561365b57506001611070565b506000611070565b600082815260026020526040812054819061367d906127f3565b905060008161369d576000858152600260205260409020600301546136a6565b6136a68561216d565b9050808414806136c75750806136bb836110ae565b6136c59086614408565b105b156136d757600192505050611070565b600092505050611070565b60006110a78383670de0b6b3a76400005b6000816137016001826144dc565b61370b858761441b565b6137159190614408565b611bc39190614448565b600082815260208190526040812060080154829082905b6000868152602081905260409020600701548110156138b257816137598161451a565b600088815260208181526040808320868452825280832054808452600290925282206003810154600190910154939650909350916001600160a01b0316908290036137a6575050506138aa565b60006137b28784613ee2565b90506137be81886144dc565b9650806000808c815260200190815260200160002060020160008282546137e591906144dc565b90915550506000848152600260205260408120600301805483929061380b9084906144dc565b909155505060008a81526001602052604081205461382c9083908380612ee4565b9050600061383a8483613299565b90508060000361385557613850848d8885613ef8565b613890565b61385f81836144dc565b6001600160a01b0385166000908152600360205260408120600101805490919061388a908490614408565b90915550505b886000036138a3575050505050506138b2565b5050505050505b600101613736565b506138be6001826144dc565b600086815260208190526040812060080180549091906138df908490614408565b909155506117bd905082856144dc565b6000828152602081905260408120600a81015482905b82600901548110156139da576000818152600184016020908152604080832054808452600490925282206002015490910361394057506139d2565b8261394a8161451a565b935050600061395882613fc3565b9050600061397c82600160008c815260200190815260200160002054600180612ee4565b6000848152600460205260409020600101549091506139a4906001600160a01b031682613454565b506139af8288614408565b96506003851180156139c15750878710155b156139ce575050506139da565b5050505b600101613905565b508082600a0160008282546139ef9190614408565b909155509295945050505050565b60008281526020819052604081206008810154839083905b8360070154811015613b355781613a2b8161451a565b6000838152602087815260408083205480845260029092528220600301549295509250819003613a5c575050613b2d565b613a6582612e34565b6000613a718683613ee2565b9050613a7d81876144dc565b9550806000808c81526020019081526020016000206002016000828254613aa491906144dc565b909155505060008381526002602052604081206003018054839290613aca9084906144dc565b909155505060008a8152600160208190526040822054613aed9184919084612ee4565b600085815260026020526040902060010154909150613b17906001600160a01b03168c8684613ef8565b86600003613b285750505050613b35565b505050505b600101613a15565b50613b416001826144dc565b836008016000828254613b549190614408565b90915550613b64905082866144dc565b9695505050505050565b6000838510613b8157612f5984866144dc565b8115613b8f57506000611bc3565b8260405162461bcd60e51b815260040161094e9190614557565b6000611070613bb7836117c6565b61104084613207565b60008181613be18280613bdc670de0b6b3a7640000600261441b565b613ed5565b905060006132828284613bdc670de0b6b3a7640000600361441b565b600081831061180d57826110a7565b6000805b6006811015613ca4576001600160a01b03841660009081526003602052604081206002018260068110613c4557613c456144c6565b015460008181526002602052604081206003015491925003613c9b576001600160a01b038516600090815260036020526040902084906002018360068110613c8f57613c8f6144c6565b01555060019150613ca4565b50600101613c10565b5080612eaa5760405162461bcd60e51b815260206004820152601260248201527f4d6178206f726465727320726561636865640000000000000000000000000000604482015260640161094e565b600082815260208181526040808320600781018054855290835290832084905584835290829052805491613d258361451a565b91905055505050565b6040516001600160a01b038481166024830152838116604483015260648201839052613daa9186918216906323b872dd906084015b604051602081830303815290604052915060e01b6020820180517bffffffffffffffffffffffffffffffffffffffffffffffffffffffff838183161783525050505061406a565b50505050565b6000805b6003811015613e56576001600160a01b038416600090815260036020819052604082206008019083908110613deb57613deb6144c6565b015460008181526004602052604081206002015491925003613e4d578360036000876001600160a01b03166001600160a01b031681526020019081526020016000206008018360038110613e4157613e416144c6565b01555060019150613e56565b50600101613db4565b5080612eaa5760405162461bcd60e51b815260206004820152601560248201527f4d617820706f736974696f6e7320726561636865640000000000000000000000604482015260640161094e565b6040516001600160a01b03838116602483015260448201839052612eaa91859182169063a9059cbb90606401613d63565b600081613715848661441b565b6000818310613ef157816110a7565b5090919050565b6000613f03846127f3565b60008481526002602081905260409091200154901591508115613f2957613f2985612ad6565b6000613f3787836000612c2b565b905080600003613f5457613f4d82888887612d47565b9050613f8a565b8215613f6357613f6381612e34565b60008181526002602052604081206003018054869290613f84908490614408565b90915550505b6000818152600260208181526040808420548452908390528220018054869290613fb5908490614408565b909155505050505050505050565b600081815260046020526040812054613fdb83613044565b600083815260046020908152604080832060020154848452838352818420600301548251808401909352600683527f6572725f3032000000000000000000000000000000000000000000000000000093830193909352945061403f92859190613b6e565b6000918252602082815260408084206003019290925593825260049093529182206002019190915590565b600061407f6001600160a01b038416836140e6565b905080516000141580156140a45750808060200190518101906140a2919061458a565b155b15612eaa576040517f5274afe70000000000000000000000000000000000000000000000000000000081526001600160a01b038416600482015260240161094e565b60606110a78383600084600080856001600160a01b0316848660405161410c91906145a7565b60006040518083038185875af1925050503d8060008114614149576040519150601f19603f3d011682016040523d82523d6000602084013e61414e565b606091505b5091509150613b6486838360608261416e57614169826141ce565b6110a7565b815115801561418557506001600160a01b0384163b155b156141c7576040517f9996b3150000000000000000000000000000000000000000000000000000000081526001600160a01b038516600482015260240161094e565b50806110a7565b8051156141de5780518082602001fd5b6040517f1425ea4200000000000000000000000000000000000000000000000000000000815260040160405180910390fd5b50565b60405180606001604052806003906020820280368337509192915050565b6040518060c001604052806006906020820280368337509192915050565b60008060006060848603121561426457600080fd5b505081359360208301359350604090920135919050565b6000806040838503121561428e57600080fd5b50508035926020909101359150565b6000602082840312156142af57600080fd5b5035919050565b801515811461421057600080fd5b6000602082840312156142d657600080fd5b81356110a7816142b6565b80356001600160a01b038116811461198f57600080fd5b6000806040838503121561430b57600080fd5b614314836142e1565b946020939093013593505050565b60006020828403121561433457600080fd5b6110a7826142e1565b60608101818360005b6003811015614365578151835260209283019290910190600101614346565b50505092915050565b6000806040838503121561438157600080fd5b61438a836142e1565b9150602083013561439a816142b6565b809150509250929050565b600080604083850312156143b857600080fd5b82359150602083013561439a816142b6565b60c08101818360005b60068110156143655781518352602092830192909101906001016143d3565b634e487b7160e01b600052601160045260246000fd5b80820180821115611070576110706143f2565b8082028115828204841417611070576110706143f2565b634e487b7160e01b600052601260045260246000fd5b60008261445757614457614432565b500490565b805169ffffffffffffffffffff8116811461198f57600080fd5b600080600080600060a0868803121561448e57600080fd5b6144978661445c565b94506020860151935060408601519250606086015191506144ba6080870161445c565b90509295509295909350565b634e487b7160e01b600052603260045260246000fd5b81810381811115611070576110706143f2565b6000826144fe576144fe614432565b500690565b600081614512576145126143f2565b506000190190565b60006001820161452c5761452c6143f2565b5060010190565b60005b8381101561454e578181015183820152602001614536565b50506000910152565b6020815260008251806020840152614576816040850160208701614533565b601f01601f19169190910160400192915050565b60006020828403121561459c57600080fd5b81516110a7816142b6565b600082516145b9818460208701614533565b919091019291505056fea2646970667358221220d0e1a7b7e251d6c8dc71968e9dd4af7d1957099559607b9fdce837aaecac327f64736f6c63430008180033",
  "linkReferences": {},
  "deployedLinkReferences": {}
}