{
  "_format": "hh-sol-artifact-1",
  "contractName": "Lbwbtc",
  "sourceName": "contracts/LBWBTC.sol",
  "abi": [
    {
      "inputs": [],
      "stateMutability": "nonpayable",
      "type": "constructor"
    },
    {
      "inputs": [
        {
          "internalType": "address",
          "name": "spender",
          "type": "address"
        },
        {
          "internalType": "uint256",
          "name": "allowance",
          "type": "uint256"
        },
        {
          "internalType": "uint256",
          "name": "needed",
          "type": "uint256"
        }
      ],
      "name": "ERC20InsufficientAllowance",
      "type": "error"
    },
    {
      "inputs": [
        {
          "internalType": "address",
          "name": "sender",
          "type": "address"
        },
        {
          "internalType": "uint256",
          "name": "balance",
          "type": "uint256"
        },
        {
          "internalType": "uint256",
          "name": "needed",
          "type": "uint256"
        }
      ],
      "name": "ERC20InsufficientBalance",
      "type": "error"
    },
    {
      "inputs": [
        {
          "internalType": "address",
          "name": "approver",
          "type": "address"
        }
      ],
      "name": "ERC20InvalidApprover",
      "type": "error"
    },
    {
      "inputs": [
        {
          "internalType": "address",
          "name": "receiver",
          "type": "address"
        }
      ],
      "name": "ERC20InvalidReceiver",
      "type": "error"
    },
    {
      "inputs": [
        {
          "internalType": "address",
          "name": "sender",
          "type": "address"
        }
      ],
      "name": "ERC20InvalidSender",
      "type": "error"
    },
    {
      "inputs": [
        {
          "internalType": "address",
          "name": "spender",
          "type": "address"
        }
      ],
      "name": "ERC20InvalidSpender",
      "type": "error"
    },
    {
      "anonymous": false,
      "inputs": [
        {
          "indexed": true,
          "internalType": "address",
          "name": "owner",
          "type": "address"
        },
        {
          "indexed": true,
          "internalType": "address",
          "name": "spender",
          "type": "address"
        },
        {
          "indexed": false,
          "internalType": "uint256",
          "name": "value",
          "type": "uint256"
        }
      ],
      "name": "Approval",
      "type": "event"
    },
    {
      "anonymous": false,
      "inputs": [
        {
          "indexed": true,
          "internalType": "address",
          "name": "from",
          "type": "address"
        },
        {
          "indexed": true,
          "internalType": "address",
          "name": "to",
          "type": "address"
        },
        {
          "indexed": false,
          "internalType": "uint256",
          "name": "value",
          "type": "uint256"
        }
      ],
      "name": "Transfer",
      "type": "event"
    },
    {
      "inputs": [],
      "name": "INITIAL_SUPPLY",
      "outputs": [
        {
          "internalType": "uint256",
          "name": "",
          "type": "uint256"
        }
      ],
      "stateMutability": "view",
      "type": "function"
    },
    {
      "inputs": [
        {
          "internalType": "address",
          "name": "owner",
          "type": "address"
        },
        {
          "internalType": "address",
          "name": "spender",
          "type": "address"
        }
      ],
      "name": "allowance",
      "outputs": [
        {
          "internalType": "uint256",
          "name": "",
          "type": "uint256"
        }
      ],
      "stateMutability": "view",
      "type": "function"
    },
    {
      "inputs": [
        {
          "internalType": "address",
          "name": "spender",
          "type": "address"
        },
        {
          "internalType": "uint256",
          "name": "value",
          "type": "uint256"
        }
      ],
      "name": "approve",
      "outputs": [
        {
          "internalType": "bool",
          "name": "",
          "type": "bool"
        }
      ],
      "stateMutability": "nonpayable",
      "type": "function"
    },
    {
      "inputs": [
        {
          "internalType": "address",
          "name": "account",
          "type": "address"
        }
      ],
      "name": "balanceOf",
      "outputs": [
        {
          "internalType": "uint256",
          "name": "",
          "type": "uint256"
        }
      ],
      "stateMutability": "view",
      "type": "function"
    },
    {
      "inputs": [],
      "name": "decimals",
      "outputs": [
        {
          "internalType": "uint8",
          "name": "",
          "type": "uint8"
        }
      ],
      "stateMutability": "view",
      "type": "function"
    },
    {
      "inputs": [
        {
          "internalType": "address",
          "name": "to",
          "type": "address"
        },
        {
          "internalType": "uint256",
          "name": "amount",
          "type": "uint256"
        }
      ],
      "name": "mint",
      "outputs": [],
      "stateMutability": "nonpayable",
      "type": "function"
    },
    {
      "inputs": [],
      "name": "name",
      "outputs": [
        {
          "internalType": "string",
          "name": "",
          "type": "string"
        }
      ],
      "stateMutability": "view",
      "type": "function"
    },
    {
      "inputs": [],
      "name": "symbol",
      "outputs": [
        {
          "internalType": "string",
          "name": "",
          "type": "string"
        }
      ],
      "stateMutability": "view",
      "type": "function"
    },
    {
      "inputs": [],
      "name": "totalSupply",
      "outputs": [
        {
          "internalType": "uint256",
          "name": "",
          "type": "uint256"
        }
      ],
      "stateMutability": "view",
      "type": "function"
    },
    {
      "inputs": [
        {
          "internalType": "address",
          "name": "to",
          "type": "address"
        },
        {
          "internalType": "uint256",
          "name": "value",
          "type": "uint256"
        }
      ],
      "name": "transfer",
      "outputs": [
        {
          "internalType": "bool",
          "name": "",
          "type": "bool"
        }
      ],
      "stateMutability": "nonpayable",
      "type": "function"
    },
    {
      "inputs": [
        {
          "internalType": "address",
          "name": "from",
          "type": "address"
        },
        {
          "internalType": "address",
          "name": "to",
          "type": "address"
        },
        {
          "internalType": "uint256",
          "name": "value",
          "type": "uint256"
        }
      ],
      "name": "transferFrom",
      "outputs": [
        {
          "internalType": "bool",
          "name": "",
          "type": "bool"
        }
      ],
      "stateMutability": "nonpayable",
      "type": "function"
    }
  ],
  "bytecode": "0x60806040523480156200001157600080fd5b506040805180820182526006808252656c625742544360d01b6020808401829052845180860190955291845290830152906003620000508382620002ac565b5060046200005f8282620002ac565b5050506200008a33670de0b6b3a764000066038d7ea4c680006200008491906200038e565b62000090565b620003c4565b6001600160a01b038216620000c05760405163ec442f0560e01b8152600060048201526024015b60405180910390fd5b620000ce60008383620000d2565b5050565b6001600160a01b03831662000101578060026000828254620000f59190620003ae565b90915550620001759050565b6001600160a01b03831660009081526020819052604090205481811015620001565760405163391434e360e21b81526001600160a01b03851660048201526024810182905260448101839052606401620000b7565b6001600160a01b03841660009081526020819052604090209082900390555b6001600160a01b0382166200019357600280548290039055620001b2565b6001600160a01b03821660009081526020819052604090208054820190555b816001600160a01b0316836001600160a01b03167fddf252ad1be2c89b69c2b068fc378daa952ba7f163c4a11628f55a4df523b3ef83604051620001f891815260200190565b60405180910390a3505050565b634e487b7160e01b600052604160045260246000fd5b600181811c908216806200023057607f821691505b6020821081036200025157634e487b7160e01b600052602260045260246000fd5b50919050565b601f821115620002a7576000816000526020600020601f850160051c81016020861015620002825750805b601f850160051c820191505b81811015620002a3578281556001016200028e565b5050505b505050565b81516001600160401b03811115620002c857620002c862000205565b620002e081620002d984546200021b565b8462000257565b602080601f831160018114620003185760008415620002ff5750858301515b600019600386901b1c1916600185901b178555620002a3565b600085815260208120601f198616915b82811015620003495788860151825594840194600190910190840162000328565b5085821015620003685787850151600019600388901b60f8161c191681555b5050505050600190811b01905550565b634e487b7160e01b600052601160045260246000fd5b8082028115828204841417620003a857620003a862000378565b92915050565b80820180821115620003a857620003a862000378565b61087080620003d46000396000f3fe608060405234801561001057600080fd5b50600436106100c95760003560e01c8063313ce5671161008157806395d89b411161005b57806395d89b4114610189578063a9059cbb14610191578063dd62ed3e146101a457600080fd5b8063313ce5671461013c57806340c10f191461014b57806370a082311461016057600080fd5b806318160ddd116100b257806318160ddd1461010f57806323b872dd146101215780632ff2e9dc1461013457600080fd5b806306fdde03146100ce578063095ea7b3146100ec575b600080fd5b6100d66101dd565b6040516100e3919061069a565b60405180910390f35b6100ff6100fa366004610705565b61026f565b60405190151581526020016100e3565b6002545b6040519081526020016100e3565b6100ff61012f36600461072f565b610289565b6101136102ad565b604051601281526020016100e3565b61015e610159366004610705565b6102c9565b005b61011361016e36600461076b565b6001600160a01b031660009081526020819052604090205490565b6100d66102d7565b6100ff61019f366004610705565b6102e6565b6101136101b236600461078d565b6001600160a01b03918216600090815260016020908152604080832093909416825291909152205490565b6060600380546101ec906107c0565b80601f0160208091040260200160405190810160405280929190818152602001828054610218906107c0565b80156102655780601f1061023a57610100808354040283529160200191610265565b820191906000526020600020905b81548152906001019060200180831161024857829003601f168201915b5050505050905090565b60003361027d8185856102f4565b60019150505b92915050565b600033610297858285610306565b6102a28585856103a2565b506001949350505050565b6102c6670de0b6b3a764000066038d7ea4c68000610810565b81565b6102d3828261041a565b5050565b6060600480546101ec906107c0565b60003361027d8185856103a2565b6103018383836001610450565b505050565b6001600160a01b03838116600090815260016020908152604080832093861683529290522054600019811461039c578181101561038d576040517ffb8f41b20000000000000000000000000000000000000000000000000000000081526001600160a01b038416600482015260248101829052604481018390526064015b60405180910390fd5b61039c84848484036000610450565b50505050565b6001600160a01b0383166103e5576040517f96c6fd1e00000000000000000000000000000000000000000000000000000000815260006004820152602401610384565b6001600160a01b03821661040f5760405163ec442f0560e01b815260006004820152602401610384565b610301838383610557565b6001600160a01b0382166104445760405163ec442f0560e01b815260006004820152602401610384565b6102d360008383610557565b6001600160a01b038416610493576040517fe602df0500000000000000000000000000000000000000000000000000000000815260006004820152602401610384565b6001600160a01b0383166104d6576040517f94280d6200000000000000000000000000000000000000000000000000000000815260006004820152602401610384565b6001600160a01b038085166000908152600160209081526040808320938716835292905220829055801561039c57826001600160a01b0316846001600160a01b03167f8c5be1e5ebec7d5bd14f71427d1e84f3dd0314c0f7b2291e5b200ac8c7c3b9258460405161054991815260200190565b60405180910390a350505050565b6001600160a01b0383166105825780600260008282546105779190610827565b9091555061060d9050565b6001600160a01b038316600090815260208190526040902054818110156105ee576040517fe450d38c0000000000000000000000000000000000000000000000000000000081526001600160a01b03851660048201526024810182905260448101839052606401610384565b6001600160a01b03841660009081526020819052604090209082900390555b6001600160a01b03821661062957600280548290039055610648565b6001600160a01b03821660009081526020819052604090208054820190555b816001600160a01b0316836001600160a01b03167fddf252ad1be2c89b69c2b068fc378daa952ba7f163c4a11628f55a4df523b3ef8360405161068d91815260200190565b60405180910390a3505050565b60006020808352835180602085015260005b818110156106c8578581018301518582016040015282016106ac565b506000604082860101526040601f19601f8301168501019250505092915050565b80356001600160a01b038116811461070057600080fd5b919050565b6000806040838503121561071857600080fd5b610721836106e9565b946020939093013593505050565b60008060006060848603121561074457600080fd5b61074d846106e9565b925061075b602085016106e9565b9150604084013590509250925092565b60006020828403121561077d57600080fd5b610786826106e9565b9392505050565b600080604083850312156107a057600080fd5b6107a9836106e9565b91506107b7602084016106e9565b90509250929050565b600181811c908216806107d457607f821691505b6020821081036107f457634e487b7160e01b600052602260045260246000fd5b50919050565b634e487b7160e01b600052601160045260246000fd5b8082028115828204841417610283576102836107fa565b80820180821115610283576102836107fa56fea2646970667358221220485b3b2484b0f95506b17547d6161b4c818a264fa91d1b0196fa36dc29443f1f64736f6c63430008180033",
  "linkReferences": {},
  "deployedLinkReferences": {}
}